:020000040000FA
:1000000050050020E1020000E9020000EB020000C0
:10001000ED020000EF020000F1020000000000000D
:10002000000000000000000000000000F3020000DB
:10003000F502000000000000F7020000291E000089
:10004000FB020000FD020000FF02000001030000AF
:10005000030300003920000007030000090300002B
:100060000B0300000D0300000F030000110300004C
:10007000130300001503000017030000190300001C
:100080001B0300001D0300001F03000021030000EC
:1000900023030000250300002703000029030000BC
:1000A0002B0300002D0300002F030000310300008C
:1000B000330300003503000037030000390300005C
:1000C0003B0300003D0300003F030000410300002C
:1000D00043030000450300004703000049030000FC
:1000E0004B0300004D0300004F03000051030000CC
:1000F000530300005503000057030000590300009C
:100100005B0300005D0300005F030000610300006B
:10011000630300006503000067030000690300003B
:100120006B0300006D0300006F030000710300000B
:1001300073030000750300007703000079030000DB
:100140007B0300007D0300007F0300009903000093
:1001500000000000000000009B0300009D03000061
:100160009F030000A103000000000000A3030000A3
:10017000A5030000A7030000A9030000AB030000D3
:10018000AD030000AF030000B1030000B3030000A3
:10019000B5030000B7030000B9030000BB03000073
:1001A000BD030000BF030000C1030000C303000043
:1001B000C5030000C7030000C9030000CB03000013
:1001C000CD030000CF030000D1030000D3030000E3
:1001D000D5030000D7030000D9030000DB030000B3
:1001E000DD030000DF030000E1030000E303000083
:1001F000E5030000E7030000E9030000EB03000053
:1002000000F002F800F044F80AA090E8000C8244E4
:100210008344AAF10107DA4501D100F039F8AFF2C1
:10022000090EBAE80F0013F0010F18BFFB1A43F0D4
:1002300001031847A4380000C4380000103A24BF56
:1002400078C878C1FAD8520724BF30C830C144BF3B
:1002500004680C607047000000230024002500267D
:10026000103A28BF78C1FBD8520728BF30C148BF19
:100270000B607047752900F02D81732900F04583CC
:10028000002070471FB503F013F91FBD10B510BD56
:1002900000F03FFB1146FFF7F5FF02F095FC00F080
:1002A0005DFB03B4FFF7F2FF03BC00F065FB000049
:1002B0000138FDD170470000EFF3108072B670472F
:1002C000EFF310807047EFF3108062B6704730BFD5
:1002D000704780F311887047EFF31180704700007A
:1002E0004548804745480047FEE7FEE7FEE7FEE752
:1002F000FEE7FEE7FEE7FEE7FEE7FEE7FEE7FEE7D6
:10030000FEE7FEE7FEE7FEE7FEE7FEE7FEE7FEE7C5
:10031000FEE7FEE7FEE7FEE7FEE7FEE7FEE7FEE7B5
:10032000FEE7FEE7FEE7FEE7FEE7FEE7FEE7FEE7A5
:10033000FEE7FEE7FEE7FEE7FEE7FEE7FEE7FEE795
:10034000FEE7FEE7FEE7FEE7FEE7FEE7FEE7FEE785
:10035000FEE7FEE7FEE7FEE7FEE7FEE7FEE7FEE775
:10036000FEE7FEE7FEE7FEE7FEE7FEE7FEE7FEE765
:10037000FEE7FEE7FEE7FEE7FEE7FEE7FEE7FEE755
:10038000FEE7FEE7FEE7FEE7FEE7FEE7FEE7FEE745
:10039000FEE7FEE7FEE7FEE7FEE7FEE7FEE7FEE735
:1003A000FEE7FEE7FEE7FEE7FEE7FEE7FEE7FEE725
:1003B000FEE7FEE7FEE7FEE7FEE7FEE7FEE7FEE715
:1003C000FEE7FEE7FEE7FEE7FEE7FEE7FEE7FEE705
:1003D000FEE7FEE7FEE7FEE7FEE7FEE7FEE7FEE7F5
:1003E000FEE7FEE7FEE7FEE7FEE7FEE70448054915
:1003F000034A054B7047000019200000010200006D
:100400005003002050050020500300200FB41CB5FD
:10041000074B06AA7B4469460090059800F04BFA0A
:100420000020694600F05AFA1CBC5DF814FB00007D
:10043000C504000070B5044685690068C10601D591
:10044000302600E02026C00707D070BDD4E9012186
:1004500030469047206A401C20626D1EF6D570BD64
:1004600070B5044685690078C00707D170BDD4E92E
:10047000012120209047206A401C20626D1EF6D585
:1004800070BD70B50C460546012A05D02878800657
:1004900000D5EA69002302E0012305E05B1C9342DA
:1004A00002D2E05C0028F9D1A869E618C01AA86158
:1004B000286A184428622846FFF7BCFF04E0D5E903
:1004C000012114F8010B9047B442F8D32846FFF7F6
:1004D000C7FF70BD2DE9F04106460024106875295C
:1004E000314616A510D0AFF30080002802DA404252
:1004F00013A507E031688A0701D512A502E0490774
:1005000004D511A5012401E0AFF3008000210A22E7
:1005100006F1240709E0B0FBF2FCB0FBF2F302FBAA
:100520001C00303078541846491C0028F3D123466B
:100530002A463046BDE8F04100F05FB900000000F7
:100540002D0000002B000000200000002DE9F05FCE
:10055000894604464FF0000ADFF824B1FB44C0F896
:1005600020A02046E168884700287DD0252806D0B5
:10057000D4E901219047206A401C2062F1E7002560
:100580005F462046E16888472028064607DB312E73
:1005900005D2B81910F8200C08B10543F1E7A807F7
:1005A00001D525F00405C4F81CA00027C4F818A044
:1005B0002A2E09D0304602F061FA38B304EB8708DE
:1005C000303EC8F8186019E059F8041B204604EBC7
:1005D00087029161E1688847012F064618D1E069DA
:1005E000002820DA25F020051DE0D8F8180000EBDF
:1005F000800006EB40003038C8F818002046E1685B
:100600008847064602F03AFA0028EED1012F0AD0B8
:100610002E2E08D12046E16888477F1C0646022F0F
:1006200045F02005C4DBA069002803DA404245F00C
:100630000105A061E80701D025F01005A6B1A6F1DB
:100640004100192802D8203645F400654A46314653
:10065000204625604D46FFF70DFE60B1012807D00A
:10066000ED1D25F0070000E007E000F1080978E73C
:1006700005F1040975E730467AE7206ABDE8F09F86
:100680000C35000010B5431C02E010F8011B71B1DD
:100690008107FAD14FF0013202C88C1A8C4314EA58
:1006A000C211F9D0C01A0A0603D0C01E10BDC01A6C
:1006B00010BD0A0401D0801E10BD0902FCD0401EEE
:1006C00010BD10B5203AC0F00B80B1E81850203AA8
:1006D000A0E81850B1E81850A0E81850BFF4F5AFE2
:1006E0005FEA027C24BFB1E81850A0E8185044BF6C
:1006F00018C918C0BDE810405FEA827C24BF51F8D9
:10070000043B40F8043B08BF7047D20728BF31F8CC
:10071000023B48BF11F8012B28BF20F8023B48BF1D
:1007200000F8012B70474FF0000200B513469446C5
:100730009646203922BFA0E80C50A0E80C50B1F139
:100740002001BFF4F7AF090728BFA0E80C5048BF4D
:100750000CC05DF804EB890028BF40F8042B08BFEB
:10076000704748BF20F8022B11F0804F18BF00F8E7
:10077000012B70474FF0013C50F8042B51F8043B1B
:100780009A4221D1A2EB0C03934313EACC1317D165
:1007900050F8042B51F8043B9A4215D1A2EB0C03FC
:1007A000934313EACC130BD150F8042B51F8043BBC
:1007B0009A4209D1A2EB0C03934313EACC13DBD08A
:1007C0004FF00000704700BFD01A01BAB1FA81F1B2
:1007D00001F0180122FA01F0CB40C1F12001DBB297
:1007E000C0B2C01A2CFA01F3D11A914311EAC31115
:1007F000E6D170477047704770472DE9F0470D46C6
:1008000099469246044600F124080168880604D5FA
:10081000E06921F01001216000E00120A84201DD23
:10082000471B00E00027A1697A1902EB0900081AAA
:10083000A0612078C00602D42046FFF7FBFD002609
:1008400008E0D4E901211AF806009047206A401C0C
:10085000761C20624E45F4DB2078C0060AD520467F
:10086000FFF7E8FD06E0D4E9012130209047206A37
:10087000401C2062381EA7F10107F4DC07E0D4E930
:10088000012118F805009047206A401C2062281EAC
:10089000A5F10105F3DC2046FFF7E2FD2078000614
:1008A00002D50220BDE8F0870120FBE701694A1C60
:1008B00002610878704700B58FB0CDE901310021A1
:1008C000059105497944CDE9031011466846FFF7C3
:1008D0003DFE0FB000BD0000E5FFFFFF0A6802F813
:1008E000010B0A60704710B5436913B1AFF3008084
:1008F00001E0FFF7C6FD012010BD127800F12401D0
:100900000A7000224A700122EDE711684FF0FF32B1
:10091000E9E7754600F02CF8AE46050069465346F7
:1009200020F00700854618B020B5FFF75FFDBDE851
:1009300020404FF000064FF000074FF000084FF046
:10094000000B21F00701AC46ACE8C009ACE8C009D7
:10095000ACE8C009ACE8C0098D46704710B5044644
:10096000AFF300802046BDE81040FFF79ABC0000BE
:1009700000487047F002002001491820ABBEFEE796
:10098000260002007047000010B5C0B0002400BF70
:100990002EE02A2135A8FFF7C6FE1A4903C9CDE982
:1009A0003301A82109A8FFF7BEFE2022154908310E
:1009B00001A8FFF786FE00F045FA33A9095D124A47
:1009C00052F8210002F05AFD1048006864300F49C7
:1009D00008600F48025D0121182000F019FE0D4942
:1009E000087001A951F8240000F018F8601CC4B286
:1009F000082CCEDB00228021074800F025FF40B004
:100A000010BD0000BC340000D8000020C40000204D
:100A10003D0000200600002000800240002100E090
:100A2000491C8142FCD3704710B500243948007836
:100A3000012805D1384800780A2190FBF1F442E002
:100A400034480078022807D1334800780A2190FB07
:100A5000F1F201FB120436E02E480078042801D19F
:100A6000102430E02B480078082805D12B48007866
:100A70000A2190FBF1F426E026480078102807D1DF
:100A8000264800780A2190FBF1F201FB12041AE0DB
:100A900020480078202801D1102414E01D48007857
:100AA000402805D11E4800780A2190FBF1F40AE0A5
:100AB00018480078802806D1194800780A2190FB50
:100AC000F1F201FB120400220621222000F0A0FD19
:100AD000144908701448025D0521222000F098FD99
:100AE000104908700B4802780621222000F090FD82
:100AF0000C49087007480078802806D0054800781F
:100B00004006000E0349087002E001200149087008
:100B100010BD00000A000020860000208700002091
:100B200088000020060000201400002010B50024DA
:100B300039480078012805D1384800780A2190FB0F
:100B4000F1F442E034480078022807D133480078B5
:100B50000A2190FBF1F201FB120436E02E480078E6
:100B6000042801D1102430E02B480078082805D152
:100B70002B4800780A2190FBF1F426E02648007803
:100B8000102807D1264800780A2190FBF1F201FBDA
:100B900012041AE020480078202801D1102414E023
:100BA0001D480078402805D11E4800780A2190FB96
:100BB000F1F40AE018480078802806D11948007836
:100BC0000A2190FBF1F201FB1204002206212220EF
:100BD00000F01EFD144908701448025D0521222012
:100BE00000F016FD104908700B48027806212220FB
:100BF00000F00EFD0C49087007480078802806D0E8
:100C0000054800784006000E0349087002E0012004
:100C10000149087010BD00000A000020800000207B
:100C20008100002082000020060000201400002027
:100C300010B500243A480078012805D139480078D9
:100C40000A2190FBF1F442E035480078022807D1F0
:100C5000344800780A2190FBF1F201FB120436E0DF
:100C60002F480078042801D1102430E02C48007867
:100C7000082805D12C4800780A2190FBF1F426E0E1
:100C800027480078102807D1274800780A2190FBD0
:100C9000F1F201FB12041AE021480078202801D16A
:100CA000102414E01E480078402805D11F48007821
:100CB0000A2190FBF1F40AE019480078802806D157
:100CC0001A4800780A2190FBF1F201FB120400227D
:100CD0000621222000F09CFC154908701548025D91
:100CE0000521222000F094FC114908700C4802787C
:100CF0000621222000F08CFC0D490870084800787D
:100D00000D490978884206DA054800784006000E49
:100D10000349087002E001200149087010BD00007D
:100D20000A000020800000208100002082000020B6
:100D300006000020140000200C00002010B5002444
:100D400039480078012805D1384800780A2190FBFD
:100D5000F1F442E034480078022807D133480078A3
:100D60000A2190FBF1F201FB120436E02E480078D4
:100D7000042801D1102430E02B480078082805D140
:100D80002B4800780A2190FBF1F426E026480078F1
:100D9000102807D1264800780A2190FBF1F201FBC8
:100DA00012041AE020480078202801D1102414E011
:100DB0001D480078402805D11E4800780A2190FB84
:100DC000F1F40AE018480078802806D11948007824
:100DD0000A2190FBF1F201FB1204002206212220DD
:100DE00000F016FC144908701448025D0521222009
:100DF00000F00EFC104908700B48027806212220F2
:100E000000F006FC0C490870074800780C49097886
:100E1000884205DD0448007840100349087002E06C
:100E200080200149087010BD0A00002080000020C9
:100E30008100002082000020060000201400002015
:100E40000D00002010B5002439480078012805D194
:100E5000384800780A2190FBF1F442E034480078E9
:100E6000022807D1334800780A2190FBF1F201FBF8
:100E7000120436E02E480078042801D1102430E016
:100E80002B480078082805D12B4800780A2190FBD0
:100E9000F1F426E026480078102807D1264800788B
:100EA0000A2190FBF1F201FB12041AE020480078BD
:100EB000202801D1102414E01D480078402805D1D5
:100EC0001E4800780A2190FBF1F40AE018480078E7
:100ED000802806D1194800780A2190FBF1F201FB25
:100EE000120400220621222000F092FB144908700F
:100EF0001448025D0521222000F08AFB1049087089
:100F00000B4802780621222000F082FB0C49087071
:100F100007480078802806D0054800784006000E73
:100F20000349087002E001200149087010BD00006B
:100F30000A0000208300002084000020850000209B
:100F4000060000201400002010B500243A48007864
:100F5000012805D1394800780A2190FBF1F442E0DC
:100F600035480078022807D1344800780A2190FBE0
:100F7000F1F201FB120436E02F480078042801D179
:100F8000102430E02C480078082805D12C4800783F
:100F90000A2190FBF1F426E027480078102807D1B9
:100FA000274800780A2190FBF1F201FB12041AE0B5
:100FB00021480078202801D1102414E01E48007830
:100FC000402805D11F4800780A2190FBF1F40AE07F
:100FD00019480078802806D11A4800780A2190FB29
:100FE000F1F201FB120400220621222000F010FB86
:100FF000154908701548025D0521222000F008FB04
:10100000114908700C4802780621222000F000FBEC
:101010000D490870084800780D490978884206DAB9
:10102000054800784006000E0349087002E00120E0
:101030000149087010BD00000A0000208300002054
:1010400084000020850000200600002014000020FD
:101050000C00002010B5002439480078012805D183
:10106000384800780A2190FBF1F442E034480078D7
:10107000022807D1334800780A2190FBF1F201FBE6
:10108000120436E02E480078042801D1102430E004
:101090002B480078082805D12B4800780A2190FBBE
:1010A000F1F426E026480078102807D12648007879
:1010B0000A2190FBF1F201FB12041AE020480078AB
:1010C000202801D1102414E01D480078402805D1C3
:1010D0001E4800780A2190FBF1F40AE018480078D5
:1010E000802806D1194800780A2190FBF1F201FB13
:1010F000120400220621222000F08AFA1449087006
:101100001448025D0521222000F082FA104908707F
:101110000B4802780621222000F07AFA0C49087068
:10112000074800780C490978884205DD04480078B2
:1011300040100349087002E080200149087010BD8A
:101140000A00002083000020840000208500002089
:1011500006000020140000200D00002010B5022021
:10116000FFF7A6F80C4CA06910F0010FFBD1E06965
:1011700010F00C0F0ED1094800F024FE0220FFF7FA
:1011800097F8A06910F0010FFBD1E06910F00C0096
:1011900008BF10BD022010BD00F00A40005800F04A
:1011A0002DE9F05FDFF848810646D8F8180010F006
:1011B000010FFAD18809C8F80400C1F38300C8F808
:1011C0000800DFF83091DFF830A195084FF0000BF0
:1011D00067D0C809012101FA00F0C743DAF800100E
:1011E00046480140A1F18050B0F5A02002BFDAF8D6
:1011F000000080B2002813D10A20FFF759F803201D
:10120000C9F8FC000A20FFF753F83D48C0F8C07247
:101210000A20FFF74DF8C9F8FCB00A20FFF748F89C
:101220003068C8F814000A20FFF742F8D8F81840D0
:1012300014F0010FFAD114F0100F24D0DAF80010D6
:101240002E480140A1F18050B0F5A02002BFDAF88D
:10125000000080B2002813D10A20FFF729F80320EC
:10126000C9F8FC000A20FFF723F82548C0F8C0B2EF
:101270000A20FFF71DF8C9F8FCB00A20FFF718F89C
:101280002046BDE8F09F6D1E06F1040609D0D8F88F
:1012900008000028A2D1D8F80400401CC8F80400B7
:1012A0009CE7DAF8001015480140A1F18050B0F534
:1012B000A02002BFDAF8000080B2002813D10A2073
:1012C000FEF7F6FF0320C9F8FC000A20FEF7F0FF46
:1012D0000B48C0F8C0B20A20FEF7EAFFC9F8FCB01C
:1012E0000A20FEF7E5FFD8F81800BDE8F09F0000DF
:1012F00000F00A4000D00F4000E00F400000FF70F7
:1013000000E00A400B4B4FEA911CC3F804C0C1F344
:1013100083019960910808BF70475A6940F8042B0F
:10132000491E08BF70479A68002AF6D15A68521CB5
:101330005A60F2E700F00A40D0F8003412F0010FD2
:1013400014BF0B438B43C0F8003412F0020FD0F8E7
:10135000202414BF114322EA0101C0F82014704771
:101360002DE9F00301264FF0000C0325C2F34117CD
:1013700006FA0CF40C4211D0D0F8C48F4FEA4C049A
:1013800005FA04F928EA0908C0F8C48FD0F8C48F18
:1013900007FA04F448EA0404C0F8C44F0CF1010C45
:1013A0000CF0FF0CBCF1080FE2D3D0F800C512F02E
:1013B000010F14BF4CEA010C2CEA010CC0F800C567
:1013C000D0F804C512F0020F14BF4CEA010C2CEA4D
:1013D000010CC0F804C5D0F808C512F0040F14BF02
:1013E0004CEA010C2CEA010CC0F808C5D0F818C56D
:1013F00012F0080F14BF4CEA010C2CEA010CC0F8E3
:1014000018C512F0100FD0F83C2514BF0A438A43C8
:10141000C0F83C25D0F80C2513F0010F14BF0A4387
:101420008A43C0F80C25D0F8102513F0020F14BF22
:101430000A438A43C0F81025D0F8142513F0040F8E
:1014400014BF0A438A43C0F81425D0F81C2513F0B2
:10145000080F14BF0A438A43C0F81C25D0F844255E
:1014600013F4007F14BF0A438A43C0F84425D0F820
:10147000402513F4407F14BF0A438A43C0F8402537
:10148000D0F82825002B0CBF114322EA0101C0F837
:101490002815BDE8F00370470E4AC0F30741D26E2D
:1014A00001238B401A420C4A1ABF02EBC101496862
:1014B00052F83110020AD1F82C354FF00F0C0CFA0B
:1014C00002FC00F00F0023EA0C0390401843C1F81F
:1014D0002C05704700E00F407C36000050F82100DA
:1014E000704730B50C4605460022FFF725FF214620
:1014F0002846BDE8304008230122FFF731BF30B550
:101500000C46054608230122FFF72AFF21462846FC
:10151000BDE830400122FFF70FBF30B50C4605464D
:101520000222FFF709FF21462846BDE83040092383
:101530000122FFF715BF30B50C4605460222FFF722
:10154000FBFE21462846BDE8304008230122FFF774
:1015500007BF30B50C4605460222FFF7EDFE2146D7
:101560002846BDE8304008230122FFF7F9BE30B518
:101570000C4605460222FFF7DFFE21462846BDE85D
:10158000304008230122FFF7EBBE40F821207047CE
:101590002DE9F04104460E4600BF1C4800F078F8E3
:1015A0000028FAD100222146184800F0B9F8314647
:1015B000164800F077F80721144800F06FF800BFD4
:1015C000124800F05FF80028FAD1104800F071F8D6
:1015D000C7B26420FFF722FA012221460B4800F02F
:1015E0009FF80721094800F059F800BF074800F0AC
:1015F00049F80028FAD1054800F052F8C5B2642035
:10160000FFF70CFA2846BDE8F08100000000024018
:101610002DE9F04104460F46154600BF184800F07A
:1016200037F80028FAD100222146154800F078F852
:101630003946134800F036F80321114800F02EF81F
:1016400000BF0F4800F024F80028FAD10C4800F041
:1016500030F8C6B229460A4800F024F805210848A7
:1016600000F01CF800BF064800F012F80028FAD17C
:10167000034800F01EF8C6B23046BDE8F081000015
:1016800000000240406810F0400018BF0120704781
:10169000406810F0010018BF01207047416070479A
:1016A0008068704781607047016A41F010010162F3
:1016B0007047406810F0010F05D110F0120F1CBFE9
:1016C00000F01C007047002070470000036A43F0E0
:1016D00010030362002A14BF0E4A0F4A02EB820372
:1016E00001EB830302EB820292005B1EB3FBF2F27A
:1016F000521EC260D0F8C02F12F0010F08BF704711
:10170000064A1144521CB1FBF2F1491E41F080011E
:10171000C1607047801A0600A08601007F4737012C
:1017200042EA41010160704718200C490870062008
:101730000B49087010200B4908700C200A490870EA
:1017400000200A4908700A4908700B2009490870EE
:101750003B20094908700949087070478000002043
:1017600081000020820000208300002084000020EF
:1017700085000020860000208700002088000020CF
:101780001649042804BF086840F4803018D00528A2
:1017900004BF086840F4003012D0062812D00F2889
:1017A00015D0102838BF7047103800F01F010122F3
:1017B00002FA01F142090A4850F82200016070471C
:1017C00008607047086840F48020086070474FF058
:1017D000E020016941F002010161704724ED00E061
:1017E000C837000010B5FEF76EFD002818BF0120B5
:1017F00010BDD0F8C82F22F0070222F480721143E6
:10180000C0F8C81F7047084401686FF352011143C4
:10181000016012F0020F14BFB0218C21016214BFCD
:101820004FF4306140F60C0141627047425842F07B
:101830000102425070470844016811F0020F14BFC2
:101840005108511E01617047002A826814BF11437C
:1018500022EA01018160704721F03F0318440368C8
:1018600013F0020F18BF520803699A1A11F0010F02
:1018700014BFC2618261704710B5174800F078FA52
:10188000164800F075FA1648FFF706FE20211548A5
:10189000FFF75FFE0222D1011348FFF7B4FF44F6C1
:1018A00020624FF480711048FFF7C5FF00210E48F9
:1018B000FFF79FFF42F2107240F207110A48FFF74C
:1018C000CBFF002280210848FFF7BEFF4FF4807154
:1018D0000548FFF7ABFF10BD004000F0090800F01D
:1018E00006140900001006400080024010B51B4895
:1018F00000F03EFA00BF194800F04EFA0028FAD076
:101900001648C01C00F034FA00BF1448C01C00F098
:1019100043FA0028F9D01148C01D00F029FA00BF91
:101920000E48C01D00F038FA0028F9D001210C48FB
:10193000FFF7E5FD01210B48FFF7E1FD0221094812
:10194000FFF7DDFD03210848FFF7CBFD0A23012245
:1019500003210548FFF704FD10BD0000050800F055
:10196000005002400040064000D0034010B51E4821
:1019700000F0FEF91D4800F0FBF91D48FFF78CFD53
:101980001C48FFF789FD04211B48FFF7D4FD0821FF
:101990001948FFF7C2FD0122184801681848FFF7EF
:1019A00095FE1748FFF780FEFF220C212220FFF74B
:1019B0002FFE044600220D212220FFF729FE0446B7
:1019C00000220E212220FFF723FE044600220321DD
:1019D0001820FFF71DFE0446FF2201211820FFF703
:1019E00017FE044610BD0000002000F0010800F0C2
:1019F00002080100020C010000500040100000200D
:101A00000000024010B5144800F0B2F9134800F08D
:101A1000AFF900BF114800F0BFF90028FAD001204B
:101A2000FFF73AFD40F20140FFF736FD03214FF08A
:101A30004020FFF79CFD60234FF4E1320848016825
:101A4000084800F0A6FF20220021064800F0D8FF39
:101A500005A000F0F7FF10BD001800F0000800F02E
:101A60001000002000C000400D0A48656C6C6F2C0F
:101A700020776F726C64212057656C636F6D6521F0
:101A8000210D0A002DE9F003AF4D02462868AF4B47
:101A90001840A0F18053B3F5A02359D002F03809C3
:101AA000DFF8AC82C2F38414B9F1100F25D0B9F17C
:101AB000300F04BF47F230504FF400130DD04FF0F9
:101AC0003800904304BF4FF40040C30105D012F02A
:101AD000380F1CBF0020034613D09E4F12F4605FE6
:101AE0004FF0000618BF00222CD057F83240444572
:101AF0007DD307EBC2025268E1E000234046152483
:101B0000EBE7A4F10900122822D29348D5F87CC053
:101B10004FF04C7350F824002CF01C0C072CA8BF7D
:101B20004CF0100CC5F87CC02E6D4FF4002C16F450
:101B3000807FD2D1BCF1010C0AD02E6D16F4807FCB
:101B4000F8D0CAE712F0380F18BFB9F1100F04D05F
:101B5000BDE8F0034FF000007047C2F30268DFF801
:101B6000FCC14FF0000257F83290E14503D307EB78
:101B7000C202526803E0521C062AF4D33246C5F86A
:101B8000C020D5F8B020DFF8D8C102EA0C0242F03C
:101B90000042C5F8B020DFF8CCC1A4F109024C1E08
:101BA0005CF828C0A444BCFBF1FCD5F8B010194384
:101BB000C5F8B01008EBC80101EB41046A4902EB1B
:101BC000420201EBC40101EB82046468C5F8644180
:101BD000D5F864416FF0FF0808EB0C2C44EA0C0CBC
:101BE000C5F864C151F82210D5F8602100E061E029
:101BF00002F400021143C5F86011D5F86011D5F860
:101C00006021C1F38921C2F30904D5F86421C2F32C
:101C1000042202F1010CD5F8642102F01F02521CCB
:101C2000B0FBF2F04A09C2F100084443424301EB21
:101C3000481104EB5212484302EB9020B0FBFCF039
:101C400041080846002257F832C0844503D307EB09
:101C5000C200466802E0521C062AF4D3C5F8C060F0
:101C6000D5F8600110F4000F1DBFD5F8B00040F0AA
:101C70008040C5F8B000D5F8600104BF40F4000012
:101C8000C5F860014FF40040D5F8682112F0010F4B
:101C900002D1401E0028F7DC002808BF002148D0F0
:101CA000D5F8B000184340F0010040F01040C5F8EE
:101CB000B0003EE0521C062AFFF417AF3246C5F8CA
:101CC000C020D5F8602122F40002C5F86021D5F8C3
:101CD000B020DFF898C002EA0C0242F00042C5F8DA
:101CE000B020002908BF4FF0000C0AD0B0FBF1FC77
:101CF000BCF1000F18BFACF1010C0CF10101B0FBFD
:101D0000F1F10846002257F83240844203D307EB32
:101D1000C200466802E0521C062AF4D3C5F8C0602F
:101D2000D5F8B00043EA8C22104340F00040C5F8DB
:101D3000B000D5F8B00020F47000C5F8B000BDE8E0
:101D4000F00308467047000000E00F400000FF70FD
:101D50000024F4003C3A00002038000040787D0167
:101D600000FC0FE0183800008C380000FF0300EF83
:101D7000C0F307230749C0B2194401F07043C1F30F
:101D8000130143EA411141EA800040F00070012252
:101D90000260704700E60F40C0F307220849C0B256
:101DA000114401F07042C1F3130142EA411141EACA
:101DB000800040F000700068002818BF01207047C4
:101DC00000EA0F40C0F307230C49C0B2194401F0E8
:101DD0007043C1F3130143EA411141EA800040F02E
:101DE000007181B001220A60002200920098401C1C
:101DF00000901028FAD30A6001B0704700E50F4048
:101E00004FF0E020016941F00501016170474FF09A
:101E1000E020016941F00201016170474FF0E021CB
:101E2000401E48617047000010B55E48008828B128
:101E30005C480088401E5B49088005E064205949E1
:101E400008800120584908705848008828B1574830
:101E50000088401E5549088005E00A205349088043
:101E600001205349087001215248FFF737FB50B950
:101E700000204F4908704C490870012211464E4815
:101E8000FFF783FB04E0002201214B48FFF77DFBB5
:101E90004A480068401C49490860494800680328CE
:101EA00058D0084600684749096890FBF1F201FBE9
:101EB0001200D0B944480078802806DA42480078F9
:101EC0004006000E4049087002E001203E490870BB
:101ED0003E480078012805DD3C48007840103B4929
:101EE000087002E0802039490870344800684FF4D7
:101EF0007A7190FBF1F201FB120058BB3448007874
:101F0000401C3349087000202C49086000F0DAFDBD
:101F100030480078304908603048007848603048E0
:101F2000007888602F480078C8602F4800780861E2
:101F30002748007848612D48007888612C4800784F
:101F4000C8612C480078086228224FF4806122483A
:101F5000FFF726F91A480068052822D017480068BC
:101F60004FF47A7190FBF1F201FB1200C8B91F48DF
:101F700000781C490978884213D11D4800781A4915
:101F8000097888420DD11B480078114909788842A8
:101F900007D119A000F056FDFEF7F6FC0220084913
:101FA000086010BD02000020050000200000002095
:101FB0000400002000D0034000400640C400002080
:101FC00090000020D00000200C0000200D00002018
:101FD00085000020800000202401002081000020D6
:101FE0008200002083000020840000208600002062
:101FF00087000020880000200D0A49742773207490
:1020000068652074696D6521212057616B652075B5
:102010007021210A0D0000000448006840F470009F
:1020200002490860024803490860704788ED00E0F3
:102030000024F400200100202DE9F04186B00025A5
:1020400000260024002701219E4800F0E2FC804683
:1020500041469C4800F0D7FC04E040229A49994848
:1020600000F0DCFC974800F08FFC0028F5D1974881
:1020700001689548FEF77EFB10B995A000F0E2FCE0
:10208000974801689048FEF775FB10B995A000F0DD
:10209000D9FC9AA18C48FEF76DFB002817D198A0B7
:1020A00000F0D0FCA2A000F0CDFCAFA000F0CAFC74
:1020B000BBA000F0C7FCC8A000F0C4FCD4A000F096
:1020C000C1FCE1A000F0BEFCEBA000F0BBFCF6A15F
:1020D0007D48FEF74FFB20B9FFF726FBF5A000F087
:1020E000B1FCF9A17848FEF745FB98B9F9480078AA
:1020F000F9A1FA4A1278F8A3CDE90032CDE902102D
:10210000F7480378F7A2F9A1FE48FEF77FF9FD48EA
:1021100000F0A6FCFCA16C48FEF72CFB98B9FD482A
:102120000078EDA1FC4A1278EBA3CDE90032CDE9AD
:102130000210FA480378FAA2ECA1F248FEF766F919
:10214000F04800F08DFCF8A15F48FEF713FB98B94A
:10215000F8480178E0A0F84A1278DFA3CDE9003210
:10216000CDE90201F5480378F5A2E0A1E548FEF7C4
:102170004DF9E44800F074FC53480078532877D1B7
:1021800051484078452873D14F48807854286FD102
:102190004D48007954286BD14B484079492867D184
:1021A000494880794D2863D14748C07945285FD197
:1021B0004548807A30384449497A303901EB810109
:1021C00000EB4100E04908603F48407B30383E4921
:1021D000097B303901EB810100EB4100DB490860EC
:1021E0003948007C30383849C97B303901EB8101EE
:1021F00000EB4100D6490860D3480068182834DA5B
:10220000D1480068002830DBD04800683C282CDA30
:10221000CE480068002828DB084600683C2824DAFD
:1022200008460068002820DBC7480078AC490870E1
:10223000C6480078A9490870C5480078A5490870C3
:1022400008460178A4A0A54A1278A3A3CDE90032DC
:10225000CDE90201A2480378BEA2C1A1A948FEF7B8
:10226000D5F8A84800F0FCFB02E0C2A000F0F8FBA3
:1022700015480078532823D1134840784528FAD1CF
:10228000114880785428F6D10F4800794428F2D1BB
:102290000D484079412813D10B48807954280FD13B
:1022A0000948C07945280BD10748807A303806495B
:1022B000497A303901EB810100EB4100B24965E117
:1022C000CAE1000000C00040C40100200401002059
:1022D0000D0A434C415353323231320A0D00000093
:1022E000080100200D0A434F444535323230333166
:1022F0003931303230360A0D000000003F00000056
:102300000D0A506C6561736520616464205B405DFB
:102310002061742074686520656E64206F66206596
:1023200061636820636F6D6D616E640D0A0000006B
:102330000D0A506C6561736520656E746572205B73
:10234000494E495420434C4F434B5D746F20696E96
:10235000697469616C697A652074686520636C6F63
:10236000636B2E0D0A0000000D0A506C65617365E9
:1023700020656E746572205B5345542054494D4569
:10238000202A2A3A2A2A3A2A2A5D20746F20736565
:10239000742074686520636C6F636B2E0D0A0000F7
:1023A0000D0A506C6561736520656E746572205B03
:1023B0005345542044415445202A2A3A2A2A3A2A8D
:1023C0002A5D20746F2073657420746865206461D1
:1023D00074652E0D0A0000000D0A506C656173656E
:1023E00020656E746572205B53455420414C415208
:1023F0004D202A2A3A2A2A3A2A2A5D20746F20730D
:1024000065742074686520414C41524D2E0D0A00C0
:102410000D0A506C6561736520656E746572205B92
:102420004745542054494D455D20746F20676574BD
:10243000207468652063757272656E742074696DAE
:10244000652E0D0A000000000D0A506C6561736571
:1024500020656E746572205B4745542044415445A5
:102460005D20746F206765742074686520646174F2
:10247000652E0D0A000000000D0A506C6561736541
:1024800020656E746572205B47455420414C415273
:102490004D5D20746F206765742074686520616CE1
:1024A00061726D2E0D0A0000494E495420434C4F75
:1024B000434B00000D0A496E697420436F6D706CC8
:1024C000657465210A0D00004745542054494D4567
:1024D00000000000850000203A0000008400002079
:1024E0008300002054494D453A0000000D0A253470
:1024F00073253032752573253032752573253032BA
:10250000750A0D002802002047455420414C4152D5
:102510004D00000088000020870000208600002079
:10252000414C41524D3A00004745542044415445E6
:1025300000000000820000208100002080000020B8
:10254000444154453A000000A0000020A4000020AF
:10255000A800002053455454494D453A000000005E
:102560002534732530327525732530327525732552
:10257000303275000D0A496E76616C696420496ECF
:10258000707574730A0D0000AC0000200860C84824
:10259000407B3038C649097B303901EB810100EBC3
:1025A0004100C4490860C248007C3038C049C97B3A
:1025B000303901EB810100EB4100BF490860BF48A1
:1025C0000068642844DABD480068002840DBB94848
:1025D00000680C283CDCB7480068012838DBB748A5
:1025E000006800F5FA6000F050FAB2490968491E27
:1025F000B34A52F821100844AF490968884227DBE2
:10260000AD480068012823DBAC480078AD4908706C
:10261000A8480078AC490870A7480078AB49087012
:1026200008460078AFF25011A74A1278AFF258135B
:10263000CDE90032CDE90210A2480378A4A2AFF29E
:10264000E001A648FDF7E2FEA44800F009FA03E025
:10265000AFF2E00000F004FA9548007853287FD1EB
:102660009348407845287BD191488078542877D189
:102670008F480079412873D18D4840794C286FD11B
:102680008B48807941286BD18948C079522867D11D
:102690008748007A4D2863D18548C07A303884490C
:1026A000897A303901EB810100EB41008C490860E7
:1026B0007F48807B30387E49497B303901EB81018E
:1026C00000EB4100874908607948407C3038784900
:1026D000097C303901EB810100EB4100824908603F
:1026E0007F480068182837DA7D480068002833DB07
:1026F0007C4800683C282FDA7A48006800282BDBE9
:10270000084600683C2827DA08460068002823DBD2
:1027100073480078754908707248007874490870E9
:10272000714800787349087008460078AFF2582164
:102730006F4A1278AFF26023CDE90032CDE9021082
:102740006A4803786CA2AFF2E8116448FDF75EFEB8
:10275000624800F085F903E0AFF2E81000F080F97C
:10276000534880782B2826D151484078303850493A
:102770000978303901EB810100EB4100C6B24C48C9
:10278000007930384A49C978303901EB810100EBD2
:102790004100C4B230195BA15BA23346CDE90024ED
:1027A000CDE9021059A25BA14C48FDF72FFE4B4822
:1027B00000F056F93BE03E4880782D2837D13C4860
:1027C000407830383A490978303901EB810100EB23
:1027D0004100C6B23648007930383549C9783039B9
:1027E00001EB810100EB4100C4B2A6420DDD301BBC
:1027F00044A14EA23346CDE90024CDE9021043A204
:1028000044A13648FDF702FE0EE0A01B47A13DA201
:10281000CDE90142CDE9031044A033463BA244A1D7
:1028200000902E48FDF7F2FD2C4800F019F9002722
:1028300017E01F48C05D202811D01D48C25D284602
:10284000691CCDB240490A54681E085C612806DD47
:10285000681E085C2038C1B2681E3B4A1154781CBF
:10286000C7B21348FDF70EFFB842E2D80020364940
:10287000485536A13448FDF77DFFA8B935480078A2
:102880001FA1354A12781EA3CDE90032CDE902100E
:1028900032480378AFF2B432AFF2B0310F48FDF7EF
:1028A000B5FD0E4800F0DCF806B0BDE8F081000090
:1028B000C4010020B0000020B4000020AC000020C3
:1028C00050000020800000208100002082000020B5
:1028D000534554444154453A00000000280200206A
:1028E000B8000020BC000020C000002086000020AE
:1028F0008700002088000020534554414C41524D30
:102900003A0000003D0000002B000000414E5357EC
:1029100045523A00253473253032752573253032FF
:10292000752573253032750A000000002D00000067
:10293000253473253032752573253032752573257E
:1029400073253032750A00008C020020474554542C
:10295000494D4500850000208400002083000020B0
:10296000816911F0100FFBD100687047826912F085
:10297000200FFBD101607047826912F0200F06BF63
:1029800001600120002070478069012121EA1010B8
:102990007047D0F818C01CF0080FFAD1D0F82CC03E
:1029A0002CF0100CC0F82CC0D0F830C02CF0010C6A
:1029B0002CF4407CC0F830C0D0F830C0B1EB021F1E
:1029C00034BF4CF0200C2CF0200CC0F830C038BFC5
:1029D0005208C900B1FBF2F1491C49088A09426258
:1029E00001F03F018162C36200218161C16A41F04F
:1029F0001001C162016B40F2013211430163704763
:102A000011434163704741647047826B1143816396
:102A10007047002914BF006CC06B704770B5064644
:102A20000C4615460BE03046FFF79AFF20702078E1
:102A3000A84201D0641C02E00020207000E0F2E710
:102A400000BF70BD10B5044604E014F8011B034834
:102A5000FFF78CFF20780028F7D110BD00C00040A0
:102A600010B5044604E014F8011B0348FFF784FF87
:102A700020780028F7D110BD00C0004030380A2867
:102A800001D2012070470020704701464FF4C87002
:102A900091FBF0F200FB121008B90120704764208E
:102AA00091FBF0F200FB121008B90020F6E7CA17FC
:102AB00001EB92729210A1EB82020AB90120EDE7BC
:102AC0000020EBE7394800783C2809DB37480078DC
:102AD0003C383649087036480078401C3449087044
:102AE000334800783C2809DB314800783C383049CD
:102AF000087030480078401C2E4908702D48007836
:102B0000182809DB2B48007818382A4908702A4809
:102B10000078401C28490870284909784FF4C87289
:102B200091FBF2F302FB131181B12449097864226D
:102B300091FBF2F302FB131161B120490878C11730
:102B400000EB91718910A0EB810119B91D201C497E
:102B5000486002E01C201A4948601A480078401E6C
:102B6000174951F820001449097888420FDA1548AE
:102B70000078401E124911F820000F490978081A00
:102B80000D4908700F480078401C0E4908700D4828
:102B900000780C2809DD0B4800780C3809490870CA
:102BA00006480078401C05490870704785000020E1
:102BB000840000208300002082000020800000208C
:102BC0005000002081000020012400BFFD49FE4884
:102BD000FEF758FFFD490860084600684FF47A7117
:102BE000B0FBF1F52846FFF719F9FFF709F9FFF7F0
:102BF0000EF9FEF77BFEFEF7B9FEFEF703FFFEF7C8
:102C00003BFE1520FEF7BCFD5021F148FFF7FDFE0D
:102C1000FEF7E8FDEF48FFF7ABF800BFED48FFF720
:102C2000BBF80028FAD0FEF799FAEB49086008468D
:102C3000006808B100BFFEE700F0C0FA6DE20120B5
:102C400000F078FA68B1E5480068401CE349086084
:102C500008460068062190FBF1F201FB1200DF49F3
:102C60000860DE480068002839D1032000F062FACD
:102C700018B14FF47A70DA490860042000F05AFA6B
:102C800010B1C820D6490860082000F053FA00B1FE
:102C90000024072000F04EFA00B10224062000F0C4
:102CA00049FA00B10124012C02D1FDF73FFF07E0F2
:102CB00014B9FDF7BDFF03E0022C01D1FEF73EF889
:102CC000C848C6490968425C01211820FEF7A0FCEB
:102CD000C5490870C5480068FDF7A0FE1DE2BF4861
:102CE000006801287DD1FDF721FFBE48BB49096876
:102CF000425C01211820FEF78BFCBB490870C820FC
:102D0000FDF78CFE032000F015FA98B1B848007862
:102D1000401EB84951F82000B7490978884209DDBA
:102D2000B5480078401CB4490870FDF7FFFE6420E8
:102D3000FDF774FE042000F0FDF968B1AE4800789C
:102D4000012809DDAC480078401EAB490870FDF74A
:102D5000EDFE6420FDF762FE082000F0EBF968B19B
:102D6000A34800780C2809DAA1480078401CA04943
:102D70000870FDF7DBFE6420FDF750FE072000F031
:102D8000D9F968B19A480078012809DD9848007897
:102D9000401E97490870FDF7C9FE6420FDF73EFE0E
:102DA000062000F0C7F968B194480078632809DA72
:102DB00092480078401C91490870FDF7B7FE6420E6
:102DC000FDF72CFE052000F0B5F9002886D08B48D1
:102DD000007800280BDD89480078401E874908707C
:102DE00000E005E0FDF7A2FE6420FDF717FE94E188
:102DF0007A480068022839D1032000F09BF918B105
:102E00004FF47A7076490860042000F093F910B10D
:102E1000C82073490860082000F08CF900B1002434
:102E2000072000F087F900B10224062000F082F9A3
:102E300000B10124012C02D1FEF704F807E014B917
:102E4000FEF782F803E0022C01D1FEF703F9654892
:102E500062490968425C01211820FEF7D9FB6249EA
:102E6000087067480068FDF7D9FD56E15B480068C7
:102E700003287DD1FDF7E6FF5A4858490968425CAE
:102E800001211820FEF7C4FB57490870C820FDF740
:102E9000C5FD032000F04EF968B15A4800783B2880
:102EA00009DA58480078401C56490870FDF7CAFFF7
:102EB0006420FDF7B3FD042000F03CF968B15148EF
:102EC0000078002809DD4F480078401E4D49087001
:102ED000FDF7B8FF6420FDF7A1FD082000F02AF9F6
:102EE00068B1494800783B2809DA47480078401C17
:102EF00045490870FDF7A6FF6420FDF78FFD072008
:102F000000F018F968B140480078002809DD3E4813
:102F10000078401E3C490870FDF794FF6420FDF7DF
:102F20007DFD062000F006F968B1384800781728C2
:102F300009DA36480078401C34490870FDF782FFF2
:102F40006420FDF76BFD052000F0F4F800288CD01C
:102F50002E480078002888DD2C480078401E2B4938
:102F60000870FDF76FFF6420FDF758FDD5E0FFE71F
:102F70001A480068042851D1FDF756FD032000F0DF
:102F8000D9F810B1224823490860042000F0D2F893
:102F900010B121481F490860052000F0CBF810B19E
:102FA000C8201C4908600F480C490968425C01218F
:102FB0001820FEF72DFB0C49087016480068FDF735
:102FC0002DFDAAE0002D3101100000F110000020BD
:102FD00000C00040005800F08C000020900000204D
:102FE000D00000203D0000200600002094000020BA
:102FF000810000205000002082000020800000207E
:10300000980000208500002084000020830000201C
:1030100040420F009C000020E09304003F480068FD
:1030200005287AD1FDF700FD3D483C490968425C1E
:1030300001211820FEF7ECFA3A490870C820FDF784
:10304000EDFC032000F076F868B1374800783B28A3
:1030500009DA35480078401C33490870FDF7E4FC74
:103060006420FDF7DBFC042000F064F868B12E4812
:103070000078002809DD2C480078401E2A49087095
:10308000FDF7D2FC6420FDF7C9FC082000F052F8DF
:1030900068B1264800783B2809DA24480078401CAB
:1030A00022490870FDF7C0FC6420FDF7B7FC07203B
:1030B00000F040F868B11D480078002809DD1B4881
:1030C0000078401E19490870FDF7AEFC6420FDF73A
:1030D000A5FC062000F02EF868B1154800781728E6
:1030E00009DA13480078401C11490870FDF79CFC70
:1030F0006420FDF793FC052000F01CF868B10C4833
:103100000078002809DD0A480078401E0849087048
:10311000FDF78AFC6420FDF781FC90E5900000201B
:103120003D000020060000208800002087000020CD
:103130008600002010B5044600212220FEF728FA60
:10314000FF2801D1002010BD00212220FEF720FA27
:10315000C4F10801154A515C884224D1002206219D
:103160002220FEF755FA124908701248FDF756FC66
:1031700004E0012211461048FEF707FA0021222040
:10318000FEF706FAC4F10801084A515C8842F0D003
:103190004FF47A70FDF742FC002201210648FEF749
:1031A000F4F90120CFE70020CDE700003500002032
:1031B0000600002040420F00005002402DE9F0417F
:1031C0008AB0002500249C4EA04628224FF480613E
:1031D0009A48FEF797F899480078994908709748F7
:1031E0000079984908709548007A97490870934883
:1031F000007B964908709148007C954908708F487B
:10320000007D944908708D48007E934908708B4872
:10321000007F92490870894890F820009049087012
:1032200000209049086000BF56E001208E490870D8
:10323000814E8E4E00252AE00A2096FBF0F100FB1D
:1032400011608B490F5C3A4605212220FEF7E0F918
:10325000884908708448027806212220FEF7D8F9B0
:10326000844908704FF47A60FDF7D8FB00220621EC
:103270002220FEF7CDF97F4908700A2096FBF0F670
:10328000794800784006000E774908706D1C082DBB
:10329000D2DB002C01DD3C2C0EDB782C01DDB42CC4
:1032A0000ADBF02C02DDB4F5967F05DBB4F5B47FC4
:1032B0000ADDB4F5D27F07DA002201211820FEF7DB
:1032C000A7F96C49087006E0FF2201211820FEF7DB
:1032D0009FF968490870641CB4F5D27FA5DB00240F
:1032E0004BE0012060490870002521E06248425D02
:1032F00005212220FEF78CF95E4908705A480278B1
:1033000006212220FEF784F95A4908704FF47A60AA
:10331000FDF784FB002206212220FEF779F95549AA
:103320000870514800784006000E4F4908706D1C27
:10333000082DDBDB002C01DD3C2C0EDB782C01DDC5
:10334000B42C0ADBF02C02DDB4F5967F05DBB4F576
:10335000B47F0ADDB4F5D27F07DA002201211820FC
:10336000FEF756F94349087006E0FF2201211820B4
:10337000FEF74EF93F490870641CB4F5D27FB0DB0C
:10338000002452E0012000901020019001200290C2
:1033900035490870002523E05DF8250034490A5CB2
:1033A00005212220FEF734F9324908702E480278B0
:1033B00006212220FEF72CF92E4908704FF47A607E
:1033C000FDF72CFB002206212220FEF721F92949D6
:1033D0000870254800784006000E234908706D1CCF
:1033E000032DD9DB002C01DD3C2C0EDB782C01DD1C
:1033F000B42C0ADBF02C02DDB4F5967F05DBB4F5C6
:10340000B47F0ADDB4F5D27F07DA0022012118204B
:10341000FEF7FEF81749087006E0FF220121182088
:10342000FEF7F6F813490870641CB4F5D27FA9DBE7
:103430000AB0BDE8F08100003EE9E6014C01002041
:1034400080000020810000208200002083000020F6
:1034500084000020850000208600002087000020D6
:1034600088000020C40000200B000020B99B9603B8
:1034700014000020060000204500002070B504461E
:1034800022464FF480710948FEF7D5F9254604EB32
:10349000D570421040F207110448FEF7DDF9012211
:1034A00080210248FEF7D0F970BD00000080024084
:1034B0004FF04070E1EE100A704700000103050371
:1034C0000403020140420F0040420F0040420F003F
:1034D00040420F0040420F0040420F0040420F00A8
:1034E00040420F00004000401000000000800540F6
:1034F0001000000000500040110000000090054046
:1035000011000000006000401200000000A0054013
:1035100012000000007000401300000000B00540E1
:1035200013000000004002401400000000C00540ED
:1035300014000000005002402E00000000D00540A2
:103540002E000000006002402F00000000E0054057
:103550002F000000007002403000000000F0054025
:103560003000000000D0034046000000000006408C
:103570004600000000100640470000000020064002
:1035800048000000003006407F0000000040064078
:1035900080000000005006408400000000600640EB
:1035A0008C0000000040004010000000008005403A
:1035B0001000000000500040110000000090054085
:1035C00011000000006000401200000000A0054053
:1035D00012000000007000401300000000B0054021
:1035E00013000000004002401400000000C005402D
:1035F00014000000005002402E00000000D00540E2
:103600002E000000006002402F00000000E0054096
:103610002F000000007002403000000000F0054064
:103620003000000000D003404300000000000640CE
:103630004300000000100640440000000020064047
:1036400045000000003006405800000000400640E1
:1036500059000000005006405C0000000060064079
:1036600064000000007006406C000000008006400E
:103670006D000000009006407F0000000040004008
:103680000080054000500040009005400060004070
:1036900000A005400070004000B00540004002401E
:1036A00000C005400050024000D0054000600240CC
:1036B00000E005400070024000F0054000D00340EB
:1036C00000000640001006400010064000200640A2
:1036D0000020064000300640003006400040064012
:1036E0000040064000500640005006400060064082
:1036F00000600640007006400070064000800640F2
:103700000080064000900640009006400007000040
:103710000006000000050000000400000003000097
:103720000002000000010000000000000000000096
:1037300018ED00E01CED00E020ED00E000E400E00A
:1037400004E400E008E400E00CE400E010E400E041
:1037500014E400E018E400E01CE400E020E400E0F1
:1037600024E400E028E400E02CE400E030E400E0A1
:1037700034E400E038E400E03CE400E040E400E051
:1037800044E400E048E400E04CE400E050E400E001
:1037900054E400E058E400E05CE400E060E400E0B1
:1037A00064E400E068E400E06CE400E070E400E061
:1037B00074E400E078E400E07CE400E080E400E011
:1037C00084E400E088E400E000E100E004E100E0DF
:1037D00008E100E00CE100E010E100E080E100E041
:1037E00084E100E088E100E08CE100E090E100E0AD
:1037F00000E200E004E200E008E200E00CE200E0A9
:1038000010E200E080E200E084E200E088E200E014
:103810008CE200E090E200E000688909001C4E0E96
:1038200040420F0000201C0080841E000080250004
:10383000999E36000040380000093D0000803E009F
:1038400000004B00404B4C0000204E00808D5B0080
:1038500000C05D000080700000127A0000007D0052
:1038600080969800001BB7000080BB00C0E8CE0027
:10387000647ADA000024F4000000FA0080A8120143
:10388000002D310100366E0140787D0140000000BE
:1038900000000000000100003E00080000000000E1
:1038A00000010000A0000000020000000001000074
:1038B0003454010000000000000100002B700600DD
:1038C00000000000000100002800000000000000CF
:1038D00000010000270001000000000000010000BE
:1038E0002000000000000000000100005000000067
:1038F00002000000000100001AAC000000000000FF
:103900000001000017940900000000000001000001
:1039100016980500000000000001000014000000DF
:1039200000000000000100001380080000000000FB
:1039300000010000A00000000800000000010000DD
:10394000100000000000000000010000280000003E
:103950000200000000010000400000000400000020
:1039600000010000600000000000000000010000F5
:103970005D000C000000000000010000500000008D
:1039800000000000000100004E00020000000000E6
:103990000001000041AC0100000000000001000037
:1039A0003C00000000000000000100003A80090017
:1039B00000000000000100003000000000000000D6
:1039C00000010000280000000000000000010000CD
:1039D0002700010000000000000100002360060035
:1039E000000000000001000021600800000000004D
:1039F000000100001E0000000000000000010000A7
:103A00001DC0040000000000000100005000000084
:103A1000020000000001000018000000000000008B
:103A20000001000014000000000000000001000080
:103A30006000000004000000000100000024F40009
:103A400030003000005A6202910091000087930319
:103A5000D200D20000B4C4041301130100E1F50543
:103A600054015401000E2707950195010400000838
:103A70000000000000000002000100001000000033
:103A800041542053545544454E54434F444500003F
:103A90004745542054494D450000000053455420EB
:103AA00054494D45000000004745542044415445C9
:103AB00000000000534554204441544500000000DC
:103AC000494E495420434C4F434B000041542B4333
:103AD0004C41535300000000F83A00000000002061
:103AE000240100003C0200001C3C000024010020D6
:103AF0002C0400005802000000000000000000003C
:103B00000000010101010100000000003F065B4FC1
:103B1000666D7D077F6F777C585E797140BF86DB6D
:103B2000CFE6EDFD87FFEFF7FCB9DEF9F17FBFDFF0
:103B3000EFF7FBFDFEFEFDFBF7EFDFBF7F670F77C3
:103B4000543D78775C0000001F0000001C0000005E
:103B50001F0000001E0000001F0000001E000000EB
:103B60001F0000001F0000001E0000001F000000DA
:103B70001E0000001F0000001806100C00000B3B88
:103B80003B00000000000000FFFFFFFFC800000036
:103B9000C8000000C8000000000000000000000095
:103BA0000000000000000000010000000100000013
:103BB0000000000000000000000000000000000005
:103BC000E8030000C8000000E80300000000000057
:103BD0008EB10000B04A00007D420000463B00006C
:103BE000EC370000D3310000642C0000892700006E
:103BF0003F2100000000000000000000CC3A00005F
:103C0000803A0000C03A0000903A0000A83A000054
:0C3C10009C3A0000B43A00000024F400CC
:0400000500000201F4
:00000001FF
